:02000000C9280D
:0E0006008312031328088A00270882000800CE
:100014000E3083120313FD00FD0B0E2800000800B0
:1000240083120313FB01FA01F9018030F800F10C8B
:10003400F00C031C26287408F90775080318750FBB
:10004400FA070318FB0A0310F01F2E287408FA0796
:1000540075080318750FFB07FB0CFA0CF90CF80C68
:10006400031C19287B08F3007A08F2007908F100D0
:060074007808F00008000E
:10007A00FF3083120313A400FF30A500FF30A6004F
:10008A00FF309F01C0309F0483161F179F178312EA
:04009A001F14080027
:10009E00831203139F01C0309F0483161F179F17EF
:1000AE0083122908F000F00D7010F00D7010F00D95
:1000BE00701070089F041F140A201F151F1D692839
:1000CE00000065281F101E08F100F00183161E089F
:0800DE00F0040030F1040800F9
:1000E600831603130711831212150C3097040800A8
:1000F600831603131208013EF000F1010318F10AFA
:1001060083122908F400F50112200630F200700867
:10011600F4007108F500720803199628F50CF40C22
:10012600F513FF3E8F280430F1007408F0007108C3
:100136000319A128F00D7010FF3E9B2883120313AC
:1001460030307005F3007408F0007508F100F10C0A
:10015600F00CF113F10CF00CF113700895000F3050
:080166009705730897040800D7
:10016E0003208A110A128000840AA70A0319A80A1A
:08017E00F003031DB72808007F
:0C01860083120313950117129712080052
:10019200013083160313850083128501831606142A
:1001A2008312061083168701831287011214921498
:1001B2007C3083169200C3203D207320061CE42865
:1001C20007148710E62807108714A9014F2070082A
:1001D2008312A2007108A3007008F2007108F300F4
:1001E200F30CF20CF313731BF317F30CF20CF3136F
:1001F200731BF3177208A0007308A1007208A9000C
:060202007B20DF28032928
:02400E004A2F37
:00000001FF
