:020000005E2D73
:0E000600213083120313FD00FD0B07280800B4
:100014000F3083120313FC004730FD00FD0B102842
:0A002400FC0B10280000000008008B
:06002E00000000000800C4
:1000340083160313BB1B21288312861323288312E0
:10004400861783163B1B2928831206132B28831239
:1000540006178316BB1A312883128612332883129B
:10006400861683163B1A3928831206123B288312FC
:1000740006166F183F280614402806108614172009
:1000840086108316BB194928831286134B288312C2
:10009400861783163B19512883120613532883129B
:1000A40006178316BB185928831286125B288312FD
:1000B400861683163B18612883120612632883125E
:1000C40006166F1867280614682806108614172069
:0E00D40086106F1C6F280A2070280320080079
:0E00E200F201F101F001F801F3010030080015
:1000F000FB14FB1F8228FF30F300F200F100F00038
:08010000FA0DF20CFF300800BB
:100108007B15FB1F8E280130F300F201F101F0018D
:08011800FA0DF20CFF300800A3
:08012000FA1FF2130030080081
:100128000E3083120313FD00FD0B98280000080011
:10013800A0017208031DB1287108F2007008F100CF
:10014800F001A0157208031DB1287108F200F10131
:10015800A011201672080319BF282008F302031DF6
:10016800031CC3280310F21BC728F00DF10DF20D74
:10017800F30BB728C3280130FC007120CA280230CD
:0E018800FC008420CA280430FC0090200800EF
:10019600831203136F1083163908BB001A206F14DD
:0201A60008004F
:0E01A8008316031328088A0027088200080027
:1001B600831603133908F2007208F100F20A3A08AE
:1001C600F000BA0A700884000008F0007108840084
:1001D600700880007108840000080319F328DF28DE
:0601E6003908F0000800DA
:1001EC0083120313FA017308031D7A147708031D95
:1001FC00FA147A0803194229033A03190D297A18BB
:10020C000A29F61F40293E29F21F3E29402972086F
:10021C008039FA00F21376088039F6137A0603193E
:10022C001B297A0803193E29402977087302031900
:10023C002229031C36293A29760872020319292926
:10024C00031C36293A297508710203193029031C3D
:10025C0036293A29740870020319422903183A29DD
:10026C00FA08031940293E29FA0803193E294029A6
:10027C0003140800031008000314031508000800F9
:10028C0083120313FB017308031D770803199D29BF
:10029C0072087606FA007708F3077E30031C5A2999
:1002AC00F3020318A0295D29F302031CA329720889
:1002BC00F8007108FC007008FD00F817F617031021
:1002CC00F201F101F0011830A0007D1C77297408AF
:1002DC00F00775080318750FF10776080318760FE9
:1002EC00F207F20CF10CF00CF80CFC0CFD0C0310EA
:1002FC00A00B6B29F21B8729F80DF00DF10DF20DF7
:10030C00F3037B1B701C9929F81F9929F00A031918
:10031C00F10A0319F20A031D9929F20CF10CF00CE5
:10032C00F30A0319A029FA1FF2130030A529013092
:10033C007120A52902307820A529043084200000E2
:02034C000800A7
:10034E0083120313F8010830FC00700DF80D7408C9
:10035E00F8020318B429F8070310F00DFC0BAC29B2
:02036E00080085
:06037000FB15FF30080040
:1003760083160313B701B8012C08B3002D08B40087
:100386002E08B5002F08B6003608FF3A031DD529FA
:100396003508FF3A031DD5293408FF3A031DD52930
:1003A6003308FF3A031DDF293008B9002F30BA00A1
:1003B600DB200330F000BC2B0130B100B51FEE2965
:1003C60080303506F0007008B500B10A30088400A8
:1003D6002D308000B00A0030F0003606031DFD29DE
:1003E60070083506031DFD2970083406031DFD2916
:1003F6003308003A031D062A3008B9003330BA0024
:10040600DB20F001BC2B3608FF3A031D142A350801
:10041600003A031D142A3408003A031D142A33082F
:10042600003A031D1E2A3008B9003530BA00DB2019
:100436003108F000BC2B0030F4000030F50000302D
:10044600F6007F30F7003308F0003408F100350875
:10045600F2003608F300F620013003180030F000F1
:1004660070080319532A83163308F0003408F10084
:100476003508F2003608F3000030F4000030F500CD
:100486002030F6008230F700462170088316B3004C
:100496007108B4007208B5007308B600B8031E2AC6
:1004A60083160030F4000030F5002030F60082306C
:1004B600F7003308F0003408F1003508F20036087A
:1004C600F300F6200130031C0030F0007008031919
:1004D600892A83163308F0003408F1003508F20043
:1004E6003608F300CD30F400CC30F5004C30F60081
:1004F6007B30F700462170088316B3007108B400FC
:100506007208B5007308B600B80A532A8316FF307E
:100516003305F800FF303405F9007F303505FA0061
:1005260000303605FB007808F4007908F5007A08F3
:10053600F6007B08F700F40DF50DF60DF70D7410B7
:1005460000303305F00000303405F1000030350589
:10055600F200FF303605F3007008B3007108B400EE
:100566007208B5007308B60074083304F000750805
:100576003404F10076083504F20077083604F300F7
:100586007008B3007108B4007208B5007308B600AD
:100596007F303602F0007008B2000130B6007008F5
:1005A600F4003308F0003408F1003508F20036088C
:1005B600F30074080319E62AF00DF10DF20DF30DA0
:1005C6007010FF3EDD2A7008B3007108B40072088F
:1005D600B5007308B6003608303EF00030088400D7
:1005E60070088000B00A80303806F0008030013A8A
:1005F6007002031C072B8030063AF0008030380664
:100606007002031C072B0E2B300884002E3080004E
:10061600B00A0130B7000630B2003208003A0319BA
:100626006C2BB6013308F0003408F1003508F200EF
:100636003608F300F00DF10DF20DF30D7010F00D0C
:10064600F10DF20DF30D70103308F007340803189E
:10065600340FF10735080318350FF207360803186B
:10066600360FF3077008B3007108B4007208B500BE
:100676007308B6003308F0003408F1003508F200BC
:100686003608F300F00DF10DF20DF30D7010700841
:10069600B3007108B4007208B5007308B6003608D6
:1006A600303EF0003008840070088000B00A370839
:1006B600003A031D6A2BB8033808003A031D6A2B5B
:1006C600300884002E308000B00A0130B700B20333
:1006D600102BFF30300784000008303A031D752BBD
:1006E600B0036C2BFF303007840000082E3A031D40
:1006F6007D2BB0033808003A0319B82B3008840064
:1007060065308000B00A80303806F0008030003A4C
:1007160070020318962B300884002D308000B00A32
:100726003808003CB8003808B2003808093C0318FD
:10073600A92B0A30F4003208F000A7213030F00768
:1007460083163008840070088000B00A0A30F4006E
:100756003208F000A7217808F0003030F007831641
:100766003008840070088000B00A300884008001D8
:04077600F001080086
:10077A00831203139F01C0309F0483161F179F170C
:10078A002C08F000F00D7010F00D7010F00D7010C4
:10079A00700883129F041F1494201F151F1DD72B46
:1007AA000000D32B1F101E08F100F00183161E084B
:0807BA00F0040030F104080016
:1007C200831203137408003A031DFC2B7508003AC8
:1007D200031DFC2B7608003A031DFC2B7708003A18
:1007E200031DFC2BFF30F000FF30F1007F30F200E0
:1007F200FF30F300972C83120313770803198B2C15
:10080200730803198E2C720876068039FA00F217E3
:10081200F617A0017208F8007108FC007008FD00CC
:100822007408FD027508031C750FFC027608031C90
:10083200760FF802F801FC01FD01031C272C0310BE
:10084200F20CF10CF00CF80C0130A0007708F30266
:10085200031C312C7E302007F3070318912C362C11
:100862007E302007F307031C942C1830FA07FD0D85
:10087200FC0DF80DF00DF10DF20DA00D7408F00253
:100882007508031C750FF1027608031C760FF2023D
:10089200760DA004201C4F2C7D145A2C7408F007EE
:1008A20075080318750FF10776080318760AF20720
:1008B2007D10FA031F307A05031D382C7B1B7D1C2B
:1008C200812C0310F00DF10DF20DA00D7408F00251
:1008D2007508031C750FF1027608031C760FF202ED
:1008E200760D20040139FD070318FC0A0319F80AE2
:1008F200031D812CF80CFC0CFD0CF30A0319912C3E
:10090200FA1FF8137808F2007C08F1007D08F00065
:100912000030962C0130B821962C02307120962C92
:0E09220004307820962C083084200000080055
:10093000AA2C803083160313AC00BD2CC030AC0051
:10094000BD2C9430AC00BD2CD430AC00BD2C80301C
:10095000AC00BD2C831603132C08013A0319992C03
:100960002C08023A03199E2C2C08033A0319A12CD7
:100970002C08043A0319A42CA72C2D03F0002C08F2
:10098000F0077008AC007008BB001A206F108316C7
:10099000AF012F082E07840000080319D82C2F0858
:1009A0002E0784000008B900CB208316AF0AC92C9B
:0609B00083126F14080021
:1009B600FF3083160313A900FF30AA00FF30AB00F7
:1009C600FF3083129F01C0309F0483161F179F17A5
:0609D60083121F1408004B
:1009DC00831603138610061006128612061386134E
:1009EC0083128610061086130613861206120A202E
:1009FC000A200A20861606168614172086100A204E
:100A0C008614172086100A208614172086100A20B8
:100A1C0006128614172086100A20861417208610BA
:100A2C00861286178614172086100A20861306163F
:100A3C0086141720861006128614172086100A209A
:100A4C0086141720861006168614172086100A2086
:100A5C000612861417208610861706178616061699
:0C0A6C008614172086100A206F14080062
:100A7800831203137008F8007108F000F101F20105
:100A8800F301FB01FC019630F300FA017008F10054
:0C0A98007808F000F801F2019C20080032
:100AA400D4208A110A128000840AA70A0319A80A0A
:080AB400F003031D522D0800A0
:100ABC007A2683160313071083120710EE240C30CA
:100ACC008316BB001A2001308316BB001A20DB24CE
:100ADC0001308316AC000130AD002130AE009824FB
:100AEC008316AC01BD233C257008E7007108E800B3
:100AFC007208E9007308EA000030F4000030F500D9
:100B0C007A30F6008730F70046210030F400C03010
:100B1C00F5007F30F6008830F700E1237008EB0019
:100B2C007108EC007208ED007308EE007008831673
:100B3C00AC007108AD007208AE007308AF00A030B5
:100B4C00B000BB210130AC000E30AD00A030AE00C7
:100B5C0098240630FB001330FC00AD30FD00FD0B7B
:100B6C00B52DFC0BB52DFB0BB52D000000006B0853
:100B7C00F4006C08F5006D08F6006E08F700003004
:100B8C00F0000030F1007030F2008330F300F620FA
:100B9C00013003180030F00070080319012E0714FF
:100BAC0001308316BB001A2001308316AC000130D3
:100BBC00AD004030AE00982401308316AC000E30EE
:100BCC00AD00A030AE00982402308316AC0001308A
:100BDC00AD005C30AE0098240B30FB002630FC00DE
:100BEC005D30FD00FD0BF82DFC0BF82DFB0BF82DEB
:100BFC00000000002C2E071001308316BB001A20B9
:100C0C0001308316AC000130AD004E30AE0098249C
:100C1C0001308316AC000E30AD00A030AE0098242D
:100C2C0002308316AC000130AD003930AE00982490
:100C3C000B30FB002630FC005D30FD00FD0B242E3C
:100C4C00FC0B242EFB0B242E00000000762D2D2EE9
:100CF40021308400463083120313F000333083160E
:0A0D0400A7000630A80052250800E1
:100C6600743465346D34703465347234613474347C
:0C0C760075347234653420343D34003491
:080C82004E3461344E3400349D
:040C8A0030340034CE
:080C8E0049344E3446340034B1
:0E0C96006E346F3472346D3461346C3400345B
:100CA400743465346D34703465347234613474343E
:0C0CB40075347234653420343D34003453
:100CC000743465346D347034653472346134743422
:0C0CD00075347234653420343D34003437
:100CDC006F3476346534723468346534613474340A
:060CEC006534643400349D
:02400E004A2F37
:00000001FF
