:02000000632A71
:06000600000000000800EC
:0E000C00213083120313FD00FD0B0A280800AB
:10001A000F3083120313FC004730FD00FD0B132839
:0A002A00FC0B132800000000080082
:1000340083120313E01B2028881321288817601BD0
:100044002528081326280817E01A2A2888122B289E
:100054008816601A2F2808123028081653183428D6
:10006400081535280811881503208811E0193C2843
:1000740088133D2888176019412808134228081757
:10008400E018462888124728881660184B2808125A
:100094004C2808165318502808155128081188159B
:1000A40003208811531C58280D20592806200800C5
:1000B40083120313DB01DD01DE011030DF000430A5
:1000C4005E0203188628F03086005F0983168600D6
:1000D400032003200F3083120605F0007008DC00B3
:1000E4007008031980285D08DB005C0803197E286A
:1000F400DC0CDC13DB0A77280430DE00DF0D5F1034
:0E0104000430DD07DE0A61285B08F000080009
:100112008312031353105B08E0001A2053140800E3
:10012200063083120313FD00FD0B95280000080022
:10013200831203135708840000080319AD285708D7
:1001420084000008F1005808840071080006031DAD
:10015200AD28D70AD80A9928570884000008F10068
:10016200580884000008F00070087102F000F101E4
:06017200031CF10308006C
:100178005A207008D7000F300605F0000319C6286A
:0A0188009120BF285708F00008007E
:10019200DB28803083120313D700EE28C030D7004B
:1001A200EE289430D700EE28D430D700EE288030E5
:1001B200D700EE28831203135708013A0319CA28FD
:1001C2005708023A0319CF285708033A0319D228CD
:1001D2005708043A0319D528D8285803F0005708BD
:1001E200F0077008D7007008E0001A205310DA01F7
:1001F2005A08590784000008031907295A085907A1
:1002020084000008DB008920DA0AF9285314080068
:100212001B29803083120313D7002E29C030D70048
:100222002E299430D7002E29D430D7002E298030A1
:10023200D7002E29831203135708013A03190A29FA
:100242005708023A03190F295708033A03191229CA
:100252005708043A0319152918295803F0005708BA
:10026200F0077008D70053147008E0001A205310EA
:0A0272005908E0001A205314080098
:0E027C00831203134E088A004D08820008000A
:10028A008316031388110811081288120813881399
:10029A0083128811081188130813881208120D2076
:1002AA000D200D20881608168815032088110D20A8
:1002BA008815032088110D208815032088110D2028
:1002CA0008128815032088110D208815032088112B
:1002DA00881288178815032088110D20881308169C
:1002EA0088150320881108128815032088110D200B
:1002FA0088150320881108168815032088110D20F7
:10030A0008128815032088118817081788160816F6
:0C031A008815032088110D2053140800E2
:10032600013083120313E0001A200130D700013098
:10033600D8003E30D900C9200B30FB002630FC0027
:100346005D30FD00FD0BA529FC0BA529FB0BA5299E
:1003560000000000D401D50180305506F000803041
:100366007002031DB829033054020318412A5408A9
:100376004F3E84000008003A031DCA2954084F3E28
:10038600D600BC205608840070088000BA2954089C
:100396004F3E84000008013A031DD62954084F3EFB
:1003A60084003730800054084F3E84000008023A2B
:1003B600031DE22954084F3E84003830800054085B
:1003C6004F3E84000008033A031DEE2954084F3EB1
:1003D60084003930800054084F3E84000008053AF6
:1003E600031DFA2954084F3E840034308000540817
:1003F6004F3E84000008063A031D062A54084F3E65
:1004060084003530800054084F3E84000008073AC7
:10041600031D122A54084F3E8400363080005408CB
:100426004F3E84000008093A031D1E2A54084F3E19
:1004360084003130800054084F3E840000080A3A98
:10044600031D2A2A54084F3E840032308000540887
:100456004F3E840000080B3A031D362A54084F3ECF
:100466008400333080000230D700540AD8002A3086
:10047600D9000921D40A0319D50AAF294F30D7006C
:100486002030D800992000307106031D4C2A003018
:100496007006031D512A0130F000562ACF01D00103
:0804A600D101D20193290800E5
:1004AE003E218A110A128000840ACD0A0319CE0A4F
:0804BE00F003031D572A08009A
:1004C600D2228316031307108312071045210C301E
:1004D600E0001A2093210130E0001A200130D700F5
:1004E6000130D8002430D900C9200230D7000130AD
:1004F600D8003230D900C92007140B30FB00263053
:10050600FC005D30FD00FD0B862AFC0B862AFB0BEA
:10051600862A0000000007100B30FB002630FC0086
:100526005D30FD00FD0B952AFC0B952AFB0B952AE9
:08053600000000006E2A9E2A5D
:1005A400203084002D3083120313F000A430CD00DA
:0805B4000230CE0057220800BE
:08054800313432343334003445
:10055000663461346C3473346834203470347234EB
:0C0560006F346734723461346D34003441
:10056C006234793420343A3420346C3461346D3450
:08057C0065346534733400346A
:1005840045346E34743465347234203470346134D8
:0E0594007334733477346F347234643400344B
:02400E004A2F37
:00000001FF
