:020000001628C0
:0E0006008312031321088A00200882000800DC
:1000140003208A110A128000840AA00A0319A10A83
:08002400F003031D0A28080087
:10002C0083160313870183128701071487100711A6
:10003C000B30FB002630FC005D30FD00FD0B24284E
:10004C00FC0B2428FB0B242800000000071087144D
:10005C0007110B30FB002630FC005D30FD00FD0B62
:10006C003528FC0B3528FB0B352800000000071049
:10007C00871007150B30FB002630FC005D30FD00AF
:10008C00FD0B4628FC0B4628FB0B46280000000005
:04009C001B284F28A6
:02400E004A2F37
:00000001FF
