:020000000329D2
:0E000600213083120313FD00FD0B07280800B4
:100014000F3083120313FC004730FD00FD0B102842
:0A002400FC0B10280000000008008B
:06002E00000000000800C4
:1000340083120313B21B2028881321288817321B2C
:100044002528081326280817B21A2A2888122B28CC
:100054008816321A2F28081230280816281834282F
:10006400081535280811881517208811B2193C285D
:1000740088133D2888173219412808134228081785
:10008400B218462888124728881632184B280812B6
:100094004C280816281850280815512808118815C6
:1000A40017208811281C58280A20592803200800E2
:0E00B400831203132C088A002B088200080018
:1000C2008312031328103108B2001A2028140800E2
:1000D2008316031388110811081288120813881353
:1000E20083128811081188130813881208120A2033
:1000F2000A200A20881608168815172088110A2057
:100102008815172088110A208815172088110A20BF
:1001120008128815172088110A20881517208811BF
:10012200881288178815172088110A208813081644
:1001320088151720881108128815172088110A209F
:1001420088151720881108168815172088110A208B
:10015200081288151720881188170817881608169C
:0C0162008815172088110A2028140800B6
:10016E00C928803083120313AD00DC28C030AD00E7
:10017E00DC289430AD00DC28D430AD00DC28803093
:10018E00AD00DC28831203132D08013A0319B82899
:10019E002D08023A0319BD282D08033A0319C02869
:1001AE002D08043A0319C328C6282E03F0002D0883
:1001BE00F0077008AD007008B2001A202810B001C8
:1001CE0030082F07840000080319F52830082F0780
:1001DE0084000008B1006120B00AE7282814080046
:1001EE005A208A110A128000840AAB0A0319AC0A3B
:0801FE00F003031DF7280800BF
:10020600443083120313A0006930A1007330A200AA
:100216007030A3006C30A4006130A5007930A600D0
:10022600A70169200C30B2001A20A901AA0180306A
:10023600F00080302A067002031D23292908103C8D
:10024600031C47290130AD002908AE002030AF005D
:10025600B7203430FC00F130FD00FD0B3029FC0BDB
:100266003029000000000130B2001A203430FC00B2
:10027600F130FD00FD0B3D29FC0B3D29000000007F
:0C028600A90A0319AA0A1A2918294829F4
:02400E004A2F37
:00000001FF
