:02000000F72CDB
:100006000F3083120313FC004730FD00FD0B092857
:0A001600FC0B0928000000000800A0
:06002000000000000800D2
:0E002600213083120313FD00FD0B1728080084
:100034007B15FB1F24280130F300F201F101F001CC
:08004400FA0DF20CFF30080078
:08004C00FA1FF2130030080056
:10005400FB14FB1F3428FF30F300F200F100F00022
:08006400FA0DF20CFF30080058
:0E006C00F201F101F001F801F301003008008B
:10007A00A0017208031D52287108F2007008F100ED
:10008A00F001A0157208031D52287108F200F1014F
:10009A00A01120167208031960282008F302031D14
:1000AA00031C64280310F21B6828F00DF10DF20DF1
:1000BA00F30B582864280130FC0036206B280230E4
:0E00CA00FC001A206B280430FC0026200800E1
:1000D80083120313D71B7228861373288617571B9E
:1000E8007728061378280617D71A7C2886127D28C1
:1000F8008616571A81280612822806163B18862863
:10010800061487280610861410208610D7198E2802
:1001180086138F28861757199328061394280617CD
:10012800D718982886129928861657189D280612D7
:100138009E2806163B18A2280614A3280610861423
:10014800102086103B1CAA280320AB281320080087
:1001580083120313F801F9011030FC00710DF80D3A
:10016800F90D7408F8027508031C750FF9020318D5
:10017800C4287408F80775080318750FF9070310E1
:0A018800F00DF10DFC0BB228080089
:100192007C18FF28FC18D0287C191E29C928A00128
:1001A2007208031DF0287108F2007008F100780847
:1001B200F000F801A0157208031DF0287108F20082
:1001C2007008F100F001A01120167208031DF0283A
:1001D2007108F200F101A015720803191229200812
:1001E200F302031D031C16290310F21BFF28F80D4E
:1001F200F00DF10DF20DF30BF62816297B1B701C86
:100202001A29F81F1A29F00A0319F10A0319F20A26
:10021200031D1A29F20CF10CF00CF30A03191E2922
:100222001A290130FC00362021290230FC001A2054
:1002320021290430FC00262021290830FC002A2034
:0402420000000800B0
:06024600FB15FF3008006B
:10024C000E3083120313FD00FD0B2A290000080059
:10025C00831203133B105208D7006C203B14080088
:10026C0083120313D5010530550203184429550890
:10027C005407840020308000D50A392955085407CA
:10028C0084008001D50355085407D6000A30F400C9
:10029C00F5015208F0005308F100AC207808F0008A
:1002AC007908F1003030F00756088400700880009F
:1002BC000A30F400F5015208F0005308F100AC20AC
:1002CC007008D2007108D30000307106031D70292C
:1002DC0000307006031D73297529D50349290800C0
:1002EC008312031372087606A000F801F901730853
:1002FC007702031C99297708FD007308F7007D0825
:10030C00F3007608FD007208F6007D08F20075080F
:10031C00FD007108F5007D08F1007408FD007008FF
:10032C00F4007D08F00077080319122A7208FA000D
:10033C00F217F61777087302F7000319CC29083067
:10034C007702031CC229F7007408F9007508F40041
:10035C007608F500F60108307702031CC229F70075
:10036C007408F9007508F400F50108307702031CD5
:10037C00C2297A08F200122A77080319CC29031033
:10038C00F60CF50CF40CF90CF70BC529A01FD929A8
:10039C00F909F409F509F609F90A0319F40A03191C
:1003AC00F50A0319F60A7908F80774080318740F8C
:1003BC00F00775080318750FF10776080318760F08
:1003CC00F207A01BF229031C022AF20CF10CF00C10
:1003DC00F80CF30F022A0E2A0318062AF809F00962
:1003EC00F109F209F80A0319F00A0319F10A0319C1
:1003FC00F20A8030FA060A2A0130FC00C920142ABD
:10040C000230FC00C920142A0430FC003D20142AC0
:10041C000830FC002A20142A0030FC0000000800E0
:0E042C008312031344088A004308820008006C
:10043A007B14FB1F282AF201FA1FFF30F200F10099
:0A044A00F000FA0DF20CFF3008007C
:10045400831203137408003A031D452A7508003AF1
:10046400031D452A7608003A031D452A7708003AF9
:10047400031D452AFF30F000FF30F1007F30F20009
:10048400FF30F30008008312031377080319D42AFA
:1004940073080319D72A720876068039FA00F2170E
:1004A400F617A0017208F8007108FC007008FD003E
:1004B4007408FD027508031C750FFC027608031C02
:1004C400760FF802F801FC01FD01031C702A0310E9
:1004D400F20CF10CF00CF80C0130A0007708F302D8
:1004E400031C7A2A7E302007F3070318DA2A7F2AAE
:1004F4007E302007F307031CDD2A1830FA07FD0DB0
:10050400FC0DF80DF00DF10DF20DA00D7408F002C4
:100514007508031C750FF1027608031C760FF202AE
:10052400760DA004201C982A7D14A32A7408F007D1
:1005340075080318750FF10776080318760AF20791
:100544007D10FA031F307A05031D812A7B1B7D1C55
:10055400CA2A0310F00DF10DF20DA00D7408F0027B
:100564007508031C750FF1027608031C760FF2025E
:10057400760D20040139FD070318FC0A0319F80A53
:10058400031DCA2AF80CFC0CFD0CF30A0319DA2A21
:10059400FA1FF8137808F2007C08F1007D08F000D7
:1005A4000030DF2A01302321DF2A02303620DF2AFF
:0E05B40004302A20DF2A08301A200000080038
:1005C20083120313CE01CF014908D0004A08D1009B
:1005D20080304A06F00080307002031DF22A00309B
:1005E20049020318002B0130CE000030CF00490829
:1005F200003CD0004A08031C013ED101D102500840
:10060200D2005108D3004B08D40036210630CC006A
:100612000030CD004D08003C031D112B4C08003C5E
:1006220003182C2B4C084B07F20001304C02F0004F
:100632000030031C013E4D02F10070084B0784009C
:100642000008F00072088400700880000130CC02BB
:10065200031CCD030B2B4B088400203080004E0876
:100662004F0403194A2BCC01CD014C084B078400DF
:100672000008203A031D412BCC0A0319CD0A362B60
:100682000130CC02031CCD034C084B0784002D30F3
:0406920080000800DC
:10069600831203139F01C0309F0483161F179F17F1
:1006A60083124908F000F00D7010F00D7010F00D77
:1006B600701070089F041F1426211F151F1D652B1F
:1006C6000000612B1F101E08F100F00183161E08A2
:0806D600F0040030F1040800FB
:1006DE0083120313FB017308031D77080319C62B3E
:1006EE0072087606FA007708F3077E30031C832B18
:1006FE00F3020318C92B862BF302031CCC2B7208B2
:10070E00F8007108FC007008FD00F817F6170310CA
:10071E00F201F101F0011830A0007D1CA02B74082D
:10072E00F00775080318750FF10776080318760F92
:10073E00F207F20CF10CF00CF80CFC0CFD0C031093
:10074E00A00B942BF21BB02BF80DF00DF10DF20D4A
:10075E00F3037B1B701CC22BF81FC22BF00A03196C
:10076E00F10A0319F20A031DC22BF20CF10CF00C64
:10077E00F30A0319C92BFA1FF2130030CE2B0130E6
:10078E003620CE2B02302A20CE2B04301A20000029
:02079E00080051
:1007A000831203137008F8007108F000F101F201E0
:1007B000F301FB01FC019630F300FA017008F1002F
:0C07C0007808F000F801F2013D2008006C
:1007CC0083120313FB01FC01FA0173080319252C96
:1007DC00F2178E30F302F31BF62B0319F62B282C91
:1007EC00F309F30A08307302031C0B2CF300F10D10
:1007FC007208F100F20108307302031C0B2CF10D8E
:10080C00F1017308031D0310132C73080319132C27
:10081C000310F20CF10CF30B0E2C7B1B711C1D2C1A
:10082C00031C1D2CF10A0319F20AF21B342CFA1FBB
:10083C00372CF209F109F10A0319F20A372CF201EB
:10084C00F101372C7B14FB1F3A2CF201FA1F3A2CC6
:10085C00FF30F200F100FA0DF20C3A2C0130FC00E2
:10086C003C2C0030FC003C2CFF30FC00FC08031935
:0E087C00402C1D227108F0007208F1000800E7
:10088A00FF3083120313BC00FF30BD00FF30BE00EF
:10089A00FF309F01C0309F0483161F179F178312D2
:0408AA001F1408000F
:1008AE0016228A110A128000840AC30A0319C40A86
:0808BE00F003031D572C080094
:1008C6008316031386100610061286120613861365
:1008D600831286100610861306138612061203204C
:1008E6000320032086160616861410208610032081
:1008F60086141020861003208614102086100320EC
:1009060006128614102086100320861410208610E6
:100916008612861786141020861003208613061664
:1009260086141020861006128614102086100320C6
:1009360086141020861006168614102086100320B2
:1009460006128614102086108617061786160616B7
:0C09560086141020861003203B140800BB
:0C096200831203138030F6067621080093
:10096E00C92C803083120313C900DC2CC030C9009F
:10097E00DC2C9430C900DC2CD430C900DC2C803047
:10098E00C900DC2C831203134908013A0319B82C51
:10099E004908023A0319BD2C4908033A0319C02C21
:1009AE004908043A0319C32CC62C4A03F00049081F
:1009BE00F0077008C9007008D7006C203B10CC01FE
:1009CE004C084B07840000080319F52C4C084B0704
:1009DE0084000008D2002E21CC0AE72C3B1408001C
:1009EE00723083120313A1006530A2007330A3008E
:1009FE006930A4007330A5007430A6006130A700E2
:100A0E006330A8006530A9002030AA003D30AB004D
:100A1E00AC0163240C30D7006C200130D7006C2061
:100A2E0045240130C9000130CA002130CB00B72463
:100A3E00C9014B23D0237008BF007108C000720893
:100A4E00C1007308C2000030F4000030F500203001
:100A5E00F6008130F7006F230030F400C030F5004F
:100A6E007F30F6008830F7002A227008BF00710828
:100A7E00C0007208C1007308C2000030F4000030DC
:100A8E00F5007A30F6008830F7006F237008C50045
:100A9E007108C6007208C7007308C8003F08F4004A
:100AAE004008F5004108F6004208F7000030F0005B
:100ABE000030F1002030F2008130F300B1247008D4
:100ACE00F4007108F5007208F6007308F700450887
:100ADE00F0004608F1004708F2004808F3002A2209
:100AEE00E6237008B9007108BA007008C9007108D1
:100AFE00CA002D30CB00E1220230C9000730CA00F7
:0A0B0E002D30CB00B7241F2D8B2DD6
:02400E004A2F37
:00000001FF
