:020000001628C0
:0E0006008312031321088A00200882000800DC
:1000140003208A110A128000840AA00A0319A10A83
:08002400F003031D0A28080087
:10002C0083160313860187018312860187013F30F3
:10003C0086000B30FB002630FC005D30FD00FD0B14
:10004C002528FC0B2528FB0B25280000000006307A
:10005C0086000B30FB002630FC005D30FD00FD0BF4
:10006C003528FC0B3528FB0B3528000000005B30D5
:10007C0086000B30FB002630FC005D30FD00FD0BD4
:10008C004528FC0B4528FB0B4528000000004F3091
:10009C0086000B30FB002630FC005D30FD00FD0BB4
:1000AC005528FC0B5528FB0B55280000000066302A
:1000BC0086000B30FB002630FC005D30FD00FD0B94
:1000CC006528FC0B6528FB0B6528000000006D30D3
:1000DC0086000B30FB002630FC005D30FD00FD0B74
:1000EC007528FC0B7528FB0B7528000000007D3073
:1000FC0086000B30FB002630FC005D30FD00FD0B54
:10010C008528FC0B8528FB0B852800000000473058
:10011C0086000B30FB002630FC005D30FD00FD0B33
:10012C009528FC0B9528FB0B9528000000007F30D0
:10013C0086000B30FB002630FC005D30FD00FD0B13
:10014C00A528FC0BA528FB0BA528000000006F3090
:10015C0086000B30FB002630FC005D30FD00FD0BF3
:10016C00B528FC0BB528FB0BB5280000000030307F
:10017C0086003F3087000B30FB002630FC005D30E2
:10018C00FD00FD0BC728FC0BC728FB0BC728000084
:10019C00000030308600303087000B30FB002630FA
:1001AC00FC005D30FD00FD0BD928FC0BD928FB0BA6
:1001BC00D92800000000303086005B3087000B30FF
:1001CC00FB002630FC005D30FD00FD0BEB28FC0B2A
:1001DC00EB28FB0BEB2800000000303086004F3082
:1001EC0087000B30FB002630FC005D30FD00FD0B62
:1001FC00FD28FC0BFD28FB0BFD2800000000303017
:10020C008600663087000B30FB002630FC005D302A
:10021C00FD00FD0B0F29FC0B0F29FB0B0F29000018
:10022C000000303086006D3087000B30FB0026302C
:10023C00FC005D30FD00FD0B2129FC0B2129FB0B83
:10024C00212900000000303086007D3087000B3003
:10025C00FB002630FC005D30FD00FD0B3329FC0B50
:10026C003329FB0B33290000000030308600473067
:10027C0087000B30FB002630FC005D30FD00FD0BD1
:10028C004529FC0B4529FB0B4529000000003030AB
:10029C0086007F3087000B30FB002630FC005D3081
:1002AC00FD00FD0B5729FC0B5729FB0B57290000B0
:1002BC000000303086006F3087000B30FB0026309A
:1002CC00FC005D30FD00FD0B6929FC0B6929FB0B63
:1002DC006929000000005B3086003F3087000B303E
:1002EC00FB002630FC005D30FD00FD0B7B29FC0B78
:0E02FC007B29FB0B7B29000000001A288429B7
:02400E004A2F37
:00000001FF
