:020000001628C0
:0E0006008312031321088A00200882000800DC
:1000140003208A110A128000840AA00A0319A10A83
:08002400F003031D0A28080087
:10002C0083160313071083120710F101F2018030BD
:10003C007206F00080307002031D26280530710214
:10004C0003184C288312031307140B30FB002630C3
:10005C00FC005D30FD00FD0B3128FC0B3128FB0B47
:10006C0031280000000007100B30FB002630FC008C
:10007C005D30FD00FD0B4028FC0B4028FB0B40289D
:0E008C0000000000F10A0319F20A1D284C289A
:02400E004A2F37
:00000001FF
