:020000001628C0
:0E0006008312031321088A00200882000800DC
:1000140003208A110A128000840AA00A0319A10A83
:08002400F003031D0A28080087
:10002C0083160313860183128601F101F2018030DD
:10003C007206F00080307002031D26281430710205
:10004C0003184D2883120313FF3086000B30FB007E
:10005C002630FC005D30FD00FD0B3228FC0B3228F5
:10006C00FB0B32280000000086010B30FB00263011
:10007C00FC005D30FD00FD0B4128FC0B4128FB0B07
:10008C00412800000000F10A0319F20A1D284D282E
:02400E004A2F37
:00000001FF
