:020000000129D4
:10000600103083120313FD00FD0B072800000800C3
:10001600083083120313FC002330FD00FD0B11286A
:06002600FC0B112808008C
:04002C0000000800C8
:1000300083120313D11B1E2888131F288817511BF6
:100040002328081324280817D11A282888122928B9
:100050008816511A2D2808122E2808164B183228F7
:10006000081533280811881516208811D1193A2847
:1000700088133B28881751193F2808134028081770
:10008000D118442888124528881651184928081282
:100090004A2808164B184E2808154F2808118815AD
:1000A000162088114B1C56280B20572803200800C7
:0E00B000831203134A088A00490882000800E0
:1000BE00831203134B105008D10018204B14080064
:1000CE008316031388110811081288120813881357
:1000DE0083128811081188130813881208120B2036
:1000EE000B200B20881608168815162088110B2059
:1000FE008815162088110B208815162088110B20C4
:10010E0008128815162088110B20881516208811C4
:10011E00881288178815162088110B208813081648
:10012E0088151620881108128815162088110B20A4
:10013E0088151620881108168815162088110B2090
:10014E0008128815162088118817081788160816A1
:0C015E008815162088110B204B14080097
:10016A00C728803083120313CC00DA28C030CC00B1
:10017A00DA289430CC00DA28D430CC00DA2880305F
:10018A00CC00DA28831203134C08013A0319B62863
:10019A004C08023A0319BB284C08033A0319BE2833
:1001AA004C08043A0319C128C4284D03F0004C082E
:1001BA00F0077008CC007008D10018204B10CF014E
:1001CA004F084E07840000080319F3284F084E070A
:1001DA0084000008D0005F20CF0AE5284B140800ED
:1001EA0058208A110A128000840AC90A0319CA0A05
:0801FA00F003031DF5280800C5
:10020200442167200C30D10018200130CC0001308D
:10021200CD002030CE00B5200230CC000130CD0020
:0A0222003030CE00B5200629152962
:1002880020308400293083120313F0001B30C9008A
:080298000130CA00F520080046
:1002360020346C3461346D34653465347334203461
:1002460065346C34623461346B3472342034003477
:10025600203445346C3465346334743472346F340A
:100266006E3469346334203465346E3467346934EB
:100276006E3465346534723469346E3467342034D0
:02028600003442
:02400E004A2F37
:00000001FF
