:020000001628C0
:0E0006008312031321088A00200882000800DC
:1000140003208A110A128000840AA00A0319A10A83
:08002400F003031D0A28080087
:10002C00831603138601831286010B30FB002630E6
:10003C00FC005D30FD00FD0B2128FC0B2128FB0B87
:10004C00212800000000013086000B30FB00263018
:10005C00FC005D30FD00FD0B3128FC0B3128FB0B47
:10006C00312800000000023086000B30FB002630E7
:10007C00FC005D30FD00FD0B4128FC0B4128FB0B07
:10008C00412800000000033086000B30FB002630B6
:10009C00FC005D30FD00FD0B5128FC0B5128FB0BC7
:1000AC00512800000000043086000B30FB00263085
:1000BC00FC005D30FD00FD0B6128FC0B6128FB0B87
:1000CC00612800000000053086000B30FB00263054
:1000DC00FC005D30FD00FD0B7128FC0B7128FB0B47
:1000EC00712800000000063086000B30FB00263023
:1000FC00FC005D30FD00FD0B8128FC0B8128FB0B07
:10010C00812800000000073086000B30FB002630F1
:10011C00FC005D30FD00FD0B9128FC0B9128FB0BC6
:10012C00912800000000083086000B30FB002630C0
:10013C00FC005D30FD00FD0BA128FC0BA128FB0B86
:10014C00A12800000000093086000B30FB0026308F
:10015C00FC005D30FD00FD0BB128FC0BB128FB0B46
:0A016C00B128000000001928BA288D
:02400E006A2125
:00000001FF
