:02000000CA290B
:0E000600213083120313FD00FD0B07280800B4
:06001400000000000800DE
:10001A000F3083120313FC004730FD00FD0B132839
:0A002A00FC0B132800000000080082
:1000340083120313F801F9011030FC00710DF80D5F
:10004400F90D7408F8027508031C750FF9020318FA
:1000540032287408F80775080318750FF907031098
:0A006400F00DF10DFC0B2028080040
:10006E0083120313BA1B3D2888133E2888173A1BA8
:10007E004228081343280817BA1A47288812482816
:10008E0088163A1A4C2808124D280816201851289E
:10009E0008155228081188150A208811BA195928EE
:1000AE0088135A2888173A195E2808135F280817EC
:1000BE00BA1863288812642888163A186828081215
:1000CE006928081620186D2808156E28081188153D
:1000DE000A208811201C75280D2076280320080080
:1000EE0083120313B8010530380203188528380827
:1000FE003707840020308000B80A7A28380837077E
:10010E0084008001B80338083707B9000A30F400BC
:10011E00F5013508F0003608F1001A207808F000D5
:10012E007908F1003030F00739088400700880003B
:10013E000A30F400F5013508F0003608F1001A20F7
:10014E007008B5007108B60000307106031DB128A5
:10015E0000307006031DB428B628B8038A2808009C
:10016E008312031320103508BA003720201408001C
:0E017E008312031322088A0021088200080061
:10018C00D828803083120313AC00EB28C030AC00AD
:10019C00EB289430AC00EB28D430AC00EB2880304A
:1001AC00AC00EB28831203132C08013A0319C7285F
:1001BC002C08023A0319CC282C08033A0319CF282F
:1001CC002C08043A0319D228D5282D03F0002C084A
:1001DC00F0077008AC007008BA0037202010AF018F
:1001EC002F082E0784000008031904292F082E0756
:1001FC0084000008B500B720AF0AF62820140800C8
:10020C00BF208A110A128000840AA10A0319A20ACB
:08021C00F003031D0629080090
:1002240083120313B101B2012C08B3002D08B400EA
:1002340080302D06F00080307002031D2329003029
:100244002C02031831290130B1000030B2002C080F
:10025400003CB3002D08031C013EB401B402330872
:10026400B5003408B6002E08B70077200630AF007A
:100274000030B0003008003C031D42292F08003C28
:1002840003185D292F082E07F20001302F02F00019
:100294000030031C013E3002F10070082E07840078
:1002A4000008F00072088400700880000130AF027A
:1002B400031CB0033C292E08840020308000310840
:1002C400320403197B29AF01B0012F082E078400E3
:1002D4000008203A031D7229AF0A0319B00A6729DE
:1002E4000130AF02031CB0032F082E0784002D3009
:0402F400800008007E
:1002F800831603138811081108128812081388132B
:1003080083128811081188130813881208120D2007
:100318000D200D208816081688150A2088110D2032
:1003280088150A2088110D2088150A2088110D20AB
:10033800081288150A2088110D2088150A208811AE
:100348008812881788150A2088110D208813081626
:1003580088150A208811081288150A2088110D208E
:1003680088150A208811081688150A2088110D207A
:10037800081288150A208811881708178816081681
:0C03880088150A2088110D2020140800A0
:100394007C210C30BA003720AA01AB018030F00078
:1003A40080302B067002031DD9292A08103C031C37
:1003B400FE292A08AC002B08AD002330AE00122120
:1003C4000130AC000130AD002330AE00C6200B304C
:1003D400FB002630FC005D30FD00FD0BEF29FC0B1B
:1003E400EF29FB0BEF29000000000130BA00372091
:0C03F400AA0A0319AB0AD029CE29FF2960
:02400E004A2F37
:00000001FF
