:02000000002AD4
:06000600000000000800EC
:10000C000F3083120313FC004730FD00FD0B0C284E
:0A001C00FC0B0C2800000000080097
:0E002600213083120313FD00FD0B1728080084
:1000340083160313AC1B2128831206102328831272
:10004400061483162C1B2928831286102B2883124E
:1000540086148316AC1A31288312061133288312AE
:10006400061583162C1A3928831286113B2883120D
:100074008615831626184128831286164328831270
:1000840086120616032006128316AC194C28831216
:1000940006104E288312061483162C195428831232
:1000A40086105628831286148316AC185C28831293
:1000B40006115E288312061583162C1864288312F1
:1000C4008611662883128615831626186C288312D7
:1000D40086166E28831286120616032006128316CD
:0C00E400261C7628062077281320080030
:1000F00083120313F8010830FC00700DF80D74082A
:10010000F80203188528F8070310F00DFC0B7D2872
:020110000800E5
:100112008316031326102B08AC001A20831626140C
:020122000800D3
:0E0124008316031321088A00200882000800B9
:1001320083160313A901033029020318A7282908EB
:100142002807840020308000A90A9C282908280753
:1001520084008001A90329082807AA000A30F400B4
:100162002708F00078207808F0003030F007831676
:100172002A088400700880000A30F4002708F00082
:10018200782070088316A7007008003A031DCA2859
:08019200CC28A903AC280800E9
:10019A00831603130612861286110611861006109C
:1001AA008312061286120610861006118611062080
:1001BA0006200620061586150616032006120620B6
:1001CA00061603200612062006160320061206202B
:1001DA0086110616032006120620061603200612AA
:1001EA0006110614061603200612062006108615A6
:1001FA00061603200612861106160320061206208A
:10020A000616032006128615061603200612062075
:10021A00861106160320061206148614061586157C
:0E022A0006160320061206208316261408006E
:1002380083120313A10108302102031855298818D5
:10024800262923291330FD00FD0B28290000000072
:10025800881840292108073CF0007008F100013097
:10026800F000710803193C29F00D7010FF3E362983
:10027800F0097008A00553292108073CF000700810
:10028800F1000130F000710803194E29F00D7010CB
:10029800FF3E48297008A004881C53295029A10A48
:0402A8001F29080002
:1002AC006829803083160313A7007B29C030A70070
:1002BC007B299430A7007B29D430A7007B29803080
:1002CC00A7007B29831603132708013A0319572922
:1002DC002708023A03195C292708033A03195F29F6
:1002EC002708043A0319622965292803F000270816
:1002FC00F0077008A7007008AC001A2083162610AF
:10030C00AA012A08290784000008031995292A083C
:10031C00290784000008AB008920AA0A8729261423
:02032C000800C7
:10032E00831603138810831288102F30FC00BF3001
:10033E00FD00FD0BA029FC0BA02900000000881475
:10034E001330FD00FD0BA929000000008316881450
:02035E00080095
:1003600083160313A801A9012708F2002708F30048
:10037000720884000008203A031DC32928082904B4
:10038000031DC329D0290130A8000030A90072083C
:1003900084000008F0007308840070088000F30AED
:1003A0007208F100F20A710884000008003A031D87
:0803B000B8292708F00008003D
:1003B80092208A110A128000840AA00A0319A10A4D
:0803C800F003031DDC2908000D
:1003D00083120313A2011A30FD00FD0BED2900006A
:1003E0008818FF293530FD00FD0BF429881CFA29F7
:1003F0000130A2001A30FD00FD0BFC2900000800AE
:10040000122383160313081283120812831688120C
:10041000831288128316081383120813CD208316C3
:100420000C30AC001A2001308316AC001A20972142
:10043000E8212208013A031D9D2A1C212008A5005D
:100440001C212008A4001C212008A3001C21200836
:10045000D4001C212008D30024082507F000F10156
:100460000318F10A2308F0070318F10A540870076B
:10047000F20071080318013EF30000307306031DFB
:10048000432A72082006031D8C2A2308D20025085F
:10049000EF0001308316A7000630A8006430A900E1
:1004A00056210230A7000230A8005530A90056217D
:1004B000831252088316A700A230A8009920A23008
:1004C000A700B0217008A9000130A7000B30A800D8
:1004D000562183126F088316A700A230A800992026
:1004E000A230A700B0217008A9000230A7000B308D
:1004F000A8005621831252081E3C031C842A6F0850
:10050000283C031C842A882A0813081688168B2A7C
:100510000812881208179C2A0C308316AC001A2087
:1005200001308316AC001A2001308316A700013079
:10053000A8003230A9005621AC2A83160130A7004A
:100540000330A8002630A90056210230A700013050
:10055000A8004230A90056210B30FB002630FC00D9
:100560005D30FD00FD0BB22AFC0BB22AFB0BB22A58
:08057000000000000F2ABB2A65
:1006240020308400503083120313F000C13083164D
:0A063400A0000230A100DC21080044
:02058200003443
:02058400003441
:0205860000343F
:0205880000343D
:02058A0000343B
:02058C00003439
:10058E004E346F34203472346534733470346F34B7
:08059E006E347334653400343F
:1005A60043346834653463346B34203473347534BF
:1005B6006D3420346534723472346F3472340034DE
:1005C600663472346F346D34203474346834653470
:1005D6002034733465346E3473346F3472340034BB
:0205E6000034DF
:0205E8000034DD
:0205EA000034DB
:1005EC00483475346D346934643469347434793412
:0E05FC003A34203420342E3430342534003488
:10060A00543465346D3470343A34203420342E3402
:06061A00303443340034CB
:020620000034A4
:02400E004A2F37
:00000001FF
