:020000001628C0
:0E0006008312031321088A00200882000800DC
:1000140003208A110A128000840AA00A0319A10A83
:08002400F003031D0A28080087
:10002C008316031386013F30831286000B30FB00CE
:10003C002630FC005D30FD00FD0B2228FC0B222835
:10004C00FB0B222800000000063086000B30FB0062
:10005C002630FC005D30FD00FD0B3228FC0B3228F5
:10006C00FB0B3228000000005B3086000B30FB00DD
:10007C002630FC005D30FD00FD0B4228FC0B4228B5
:10008C00FB0B4228000000004F3086000B30FB00B9
:10009C002630FC005D30FD00FD0B5228FC0B522875
:0A00AC00FB0B5228000000005A2848
:02400E004A2F37
:00000001FF
